:02002B0001B919
:1000B900C0E0C083C082C0D075D010C2CF78091605
:1000C900E6700E18E66410F6907F97F0780AE61845
:1000D900F67808E6700D08E6B40108907F947480FC
:1000E900F08005907F94E4F0D0D0D082D083D0E026
:0100F90032D4
:08000F00907FC8E05402FF22BB
:10012B00907FB8E0FE530602EE70F5FEEEC39D50D5
:10013B0013EF2EF8E6FCE42EF582E4347EF583EC27
:0A014B00F00E80E8907FB9EDF0227D
:1000FA00907FC8E0FE530602EE70F5A3E0FEE4FD31
:10010A00EDC39E501474C02DF582E4347DF583E06E
:10011A00FCEF2DF8A6040D80E7907FC9E4F0AF0646
:01012A0022B2
:10002D0078087610780A7619187619907F9EE4F084
:10003D00907F9D7490F0907F977410F0E4F5C875E3
:10004D00CB6375CAC0907F94F0907FDE7407F0A3E8
:10005D00F0907FC8E4F0907FB8F0907FA104F0D2CB
:10006D00ADD2AFD2CA110F7838EFF670F87F1811F4
:10007D00FA7839A607C2CA78087610907F9774105F
:10008D00F07818E6FF640860DCEF7003438E20EF14
:10009D00B44003538EDF7819E6FF780AF618F67828
:0C00AD001AE6F5CA08E6F5CBD2CA80B905
:03000000020003F8
:0C000300787FE4F6D8FD75813902002DED
:00000001FF
